:020000040800F2
:10000000381C0020210200089B1700089B160008DE
:1000100099170008ED040008E1190008000000002D
:10002000000000000000000000000000890100083E
:10003000EF04000800000000CD010008CD18000802
:100040003B0200083B0200083B0200083B0200089C
:100050003B0200083B0200083B0200083B0200088C
:100060003B0200083B0200083B0200083B0200087C
:100070003B0200083B0200083B0200083B0200086C
:100080003B0200083B0200083B0200083B0200085C
:100090003B0200083B0200083B0200083B0200084C
:1000A0003B020008691900083B0200083B020008F7
:1000B0003B0200083B0200083B0200083B0200082C
:1000C0003B0200083B0200083B0200083B0200081C
:1000D0003B0200083B0200083B0200083B0200080C
:1000E000F10400083B0200083B02000800F002F89F
:1000F00000F03AF80AA090E8000C82448344AAF188
:100100000107DA4501D100F02FF8AFF2090EBAE885
:100110000F0013F0010F18BFFB1A43F0010318473B
:100120008C3E0000AC3E0000103A24BF78C878C175
:10013000FAD8520724BF30C830C144BF04680C60ED
:10014000704700000023002400250026103A28BF35
:1001500078C1FBD8520728BF30C148BF0B60704739
:100160001FB51FBD10B510BD00F01BF91146FFF7FC
:10017000F7FF01F04DFC00F039F903B4FFF7F2FF8F
:1001800003BC00F041F90000224B19680868B0E890
:10019000F00F80F30988BFF36F8F4FF0000080F3FA
:1001A00011884EF00D0E70470000000006480068F0
:1001B000006880F3088862B661B6BFF34F8FBFF363
:1001C0006F8F00DF00BF00BF08ED00E0EFF3098094
:1001D000BFF36F8F0F4B1A6820E9F00F106008B55E
:1001E0004FF0500080F31188BFF34F8FBFF36F8F34
:1001F00002F066FB4FF0000080F31188BDE8084074
:1002000019680868B0E8F00F80F30988BFF36F8FB2
:10021000704700BF28000020EFF305807047000002
:100220000948804709480047FEE7FEE7FEE7FEE78A
:10023000FEE7FEE7FEE7FEE7FEE7FEE704480549C6
:10024000054A064B7047000067190008ED000008DA
:1002500038160020381C00203818002038180020DC
:10026000032A40F2308010F0030C00F0158011F8E2
:10027000013BBCF1020F624498BF11F801CB00F8BA
:10028000013B38BF11F8013BA2F1040298BF00F80E
:1002900001CB38BF00F8013B11F0030300F02580CB
:1002A000083AC0F0088051F8043B083A51F804CBF2
:1002B000A0E80810F5E7121D5CBF51F8043B40F8B8
:1002C000043BAFF30080D20724BF11F8013B11F8C3
:1002D00001CB48BF11F8012B24BF00F8013B00F807
:1002E00001CB48BF00F8012B704710B5203AC0F091
:1002F0000B80B1E81850203AA0E81850B1E8185027
:10030000A0E81850BFF4F5AF5FEA027C24BFB1E863
:100310001850A0E8185044BF18C918C0BDE81040D4
:100320005FEA827C24BF51F8043B40F8043B08BFDD
:100330007047D20728BF31F8023B48BF11F8012BA4
:1003400028BF20F8023B48BF00F8012B70474FF050
:10035000000200B5134694469646203922BFA0E815
:100360000C50A0E80C50B1F12001BFF4F7AF090721
:1003700028BFA0E80C5048BF0CC05DF804EB890012
:1003800028BF40F8042B08BF704748BF20F8022B55
:1003900011F0804F18BF00F8012B7047704770476D
:1003A0007047754600F02CF8AE4605006946534686
:1003B00020F00700854618B020B5FFF73FFFBDE8E5
:1003C00020404FF000064FF000074FF000084FF0BC
:1003D000000B21F00701AC46ACE8C009ACE8C0094D
:1003E000ACE8C009ACE8C0098D46704710B50446BA
:1003F000AFF300802046BDE81040FFF7BEBE00000E
:1004000000487047D415002001491820ABBEFEE714
:10041000260002007047000070B50446006881683D
:10042000C943C90717D1816821F00101816000F03B
:10043000E7FB05460AE000BF00F0E2FB401B022894
:1004400004D920688068C043C00706D0206880684F
:10045000C043C007F0D0002070BDA06A40F010007B
:10046000A062E06A40F00100E062012070BD00007F
:10047000F8B500260446009600688168C943C9079C
:100480002DD0816841F0010181601648164900684D
:10049000B0FBF1F000E0401E00900028FBD100F01E
:1004A000AFFB054616E000BF00F0AAFB401B022888
:1004B00010D920688068C043C0070BD0A06A40F004
:1004C0001000A062E06A40F00100E06284F824605D
:1004D0000120F8BD20688068C043C007E4D1002037
:1004E000F8BD00002400002040420F00FEE77047E6
:1004F0004FF4805000F07EBAF8B50024009490F8D4
:1005000024202546012A12D0012280F824204A689E
:100510001F23072A0DD20668776B521E02EB820258
:1005200093409F430B6893401F43776319E0022079
:10053000F8BD06680D2A0AD2376BD21F02EB820281
:1005400093409F430B6893401F43376309E0F76A6A
:100550000D3A02EB820293409F430B6893401F4386
:10056000F7620A68072306680A2A0AD3F7680A3A74
:1005700002EB420293409F438B6893401F43F76016
:1005800008E0376902EB420293409F438B68934037
:100590001F4337610A68102A01D0112A20D1124B5B
:1005A00002689A4217D193681B0219D4936843F4E6
:1005B000000393600968102912D10C490C4A09689C
:1005C000B1FBF2F101EB8101490000E0491E00910D
:1005D0000029FBD104E0816A41F0200181620124FD
:1005E00080F824502046F8BD00240140240000205B
:1005F00040420F000068C06C704700002DE9F041D8
:100600004FF0000704003D467ED0A06A002628B9BE
:10061000E66284F82460204600F07EF82046FFF76A
:10062000FBFEA16AC90600D420B1A06A40F0100008
:10063000A06269E0A16A21F4885141F00201A1623F
:100640006268E169237B0A4347EA43010A43A168E0
:100650004FF48077B94209D0012907D05FF000013B
:1006600094F814C0BCF1010F02D00AE03946F7E754
:10067000F3B1A36A43F02003A362E36A43F00103EA
:10068000E3622368D3F804C02CF4694C4CEA010CF3
:10069000C3F804C021688B68DFF870C003EA0C035C
:1006A00013438B60A168B9420BD0012909D00CE03B
:1006B000DFF85CC0A3690CEB43330B4343F40061E8
:1006C000DFE7218A0D05A5F580152168CB6A23F4A3
:1006D00070032B43CB62216889680E4B194091420D
:1006E00008D1E662A16A21F0020141F00101A16294
:1006F000BDE8F081A06A20F0020040F01000A06286
:10070000E06A40F00100E0620120F1E7FDF7E1FF5F
:1007100000E0FFFFFE0E1FFF00B585B00021009135
:1007200001910291039100680E49884218D10E4848
:10073000816941F400718161816901F40071049162
:10074000816941F0040181618069694600F004001B
:1007500004900120009003200190044800F056F915
:1007600005B000BD00240140001002400008014017
:100770002DE9F84300270D460446009700F040FAA3
:10078000804620688168C90508D5A06A40F020002D
:10079000A06284F824700120BDE8F8834168C9058F
:1007A00003D4C06A10F4700F2AD0022000F0F2FACD
:1007B0003B490968B1FBF0F62068036939490B42EF
:1007C0004FEA61014FEAA1121FD1C3684FEA611CD1
:1007D00013EA0C0F19D103690B4225D1C0681042EE
:1007E00022D1142023E0681C0AD02DB100F008FAB1
:1007F000A0EB0800A84203D920680068800725D52F
:10080000206800688007EED52DE003690B4202D115
:10081000C168114206D0026923490A4206D1C06864
:10082000084203D1542002E0292000E0FC20464386
:10083000009816E0681C11D02DB100F0E1F9A0EB92
:100840000800A8420AD90098B04207D2A06A40F036
:100850000400A06284F8247003209DE70098401CE7
:100860000090B042E6D321686FF012000860A06AE1
:1008700040F40070A06220688068C0F342400728FE
:100880000CD1207B50B9A06A20F48070A062A06ACD
:10089000C00403D4A06A40F00100A06200207BE7FE
:1008A00024000020244992244992240070B5044673
:1008B00090F8240001280DD0012084F8240020465F
:1008C000FFF7D6FD02004FF0000005D084F82400A9
:1008D000104670BD022070BDA16A40F20123994309
:1008E00041F48071A1621F4D23681F49AB4218D1AA
:1008F0000E6816F4702F14D0A66A46F48016A6620D
:100900000E68760505D5A66A26F4005646F480568C
:10091000A662A66AF6040AD5E66A26F00606E6622C
:1009200006E0A66A26F48016A6625E68E9E7E06241
:1009300084F824006FF00200186020688368C3F315
:100940004243072B05D1A84208D1096811F4702F42
:1009500004D0816841F480118160B9E7816841F475
:10096000A001F9E7002801400424014010B5044625
:1009700090F82400012807D0012084F824002046A4
:10098000FFF74AFD10B107E0022010BDA16A21F473
:10099000885141F00101A162002184F8241010BDAA
:1009A00070B5B0F5805F1FD1104C607800281BD067
:1009B0004FF0FF31606901F0CFF8002060700C4DFE
:1009C00002462021284600F016F900224021284640
:1009D00000F011F900228021284600F00CF960692E
:1009E000BDE8704001F090B870BD0000000000202C
:1009F00000080140044910B50A68024202D00860AC
:100A0000FFF7CEFF10BD0000140401402DE9F84FA0
:100A1000DFF8B891002409F1040A0AF1040B234617
:100A20000F270BF1040EC9E00125A5402A40AA4278
:100A30007DD1674ED1F804C0ACEB0608B44532D086
:100A400014DCBCF1030F3AD009DCBCF1000F2AD052
:100A5000BCF1010F1CD0BCF1020F31D11DE0BCF183
:100A6000110F17D0BCF1120F2AD119E0B8F5881F69
:100A700019D006DCB8F5803F15D0B8F5801F1FD11E
:100A800011E0B8F5001F0ED0B8F5041F18D10AE028
:100A9000CB6815E0CB681B1D12E0CB6808330FE074
:100AA000CB680C330CE08B682BB1012B4FF00803A3
:100AB00003D0456104E0042302E0056100E0002367
:100AC000FF2A01D8064601E000F104064FEA84053A
:100AD00001D9A5F12005D6F8008007FA05FC28EA1F
:100AE0000C0803FA05F548EA0508C6F800804D68C9
:100AF000ED0062D5374DAE6946F00106AE61AD69D5
:100B000024F0030605F001050095334D06EB050CB6
:100B1000DCF80850A607360F07FA06F825EA08059C
:100B2000DFF8B880404503D14FF0000817E044E0FB
:100B3000DFF8AC80404502D14FF001080FE0DFF84C
:100B4000A480404502D14FF0020808E0DFF8988009
:100B5000404502D14FF0030801E04FF0040808FAC5
:100B600006F848EA0508CCF808804D68D9F8006016
:100B7000ED034D4601D5164300E096432E604D68C7
:100B8000DAF80060AD03554601D5164300E0964300
:100B90002E604D68DBF80060ED025D4601D516431E
:100BA00000E096432E604D68DEF80060AD027546A9
:100BB00001D5164300E096432E60641C0D682A465A
:100BC000E5407FF431AFBDE8F88F0000000401403C
:100BD0000000111000100240000001400008014018
:100BE000000C0140001001400014014080680840E2
:100BF00000D0012070470AB1016170470904FBE78A
:100C00000148806870470000180000200248816891
:100C1000027811448160704718000020074810B521
:100C2000016841F010010160032000F0A1F80F20DD
:100C300000F006F800F04AF8002010BD0020024045
:100C400030B505461C4887B0816941F40061816177
:100C5000806906A900F40060009001A800F00AFA7B
:100C600000F028FA1549164AB0FBF1F11548491E63
:100C70000260416040F2E7320021C0E90321816057
:100C8000816100F0EFFB040012D10E4800F018FC67
:100C900004000DD1192000F03DF8102D07D20022DC
:100CA0002946192000F044F80748056000E00124B7
:100CB00007B0204630BD00000010024040420F0047
:100CC000002C0140740700201C0000200F4808B5CC
:100CD000816941F001018161816901F001010091A7
:100CE000C16941F08051C161C069002200F08050AB
:100CF00000900F21901E00F01BF80548416821F07C
:100D0000E06141F00071416008BD00000010024048
:100D100000000140002809DB00F01F020121914082
:100D20004009800000F1E020C0F800117047000089
:100D3000F0B40E4B1B680C46C3F30223C3F1070546
:100D4000042D00D90425191D072901D2002300E034
:100D5000DB1E012606FA05F1491E214099409E40FE
:100D6000761E16403143F0BC00F03BBE0CED00E0B7
:100D7000064900F0070208684FF6FF03184040EAF2
:100D80000220034A10430860704700000CED00E0A9
:100D90000000FA0510B529A401461DCC86B08DE8E7
:100DA0001D002AA02A4C006804900020012923D0AD
:100DB00002293AD010291DD161682268D20119D5C3
:100DC000C1F38342C9031DF8020009D5616804AA72
:100DD000C1F34041515C1F4AB2FBF1F1484301E0CD
:100DE0001D4948436168490204D440005FF0030193
:100DF000B0FBF1F006B010BD226AC2F30121012957
:100E000003D1920701D5C803F4E7022905D1626A2C
:100E1000920702D549F64040ECE70329EAD1216860
:100E20008903E7D54FF22440E4E700F043F9616815
:100E3000C1F38131491C4900DAE7000002030405CF
:100E4000060708090A0B0C0D0E0F10100102000016
:100E50000010024000127A0000093D002DE9F8431D
:100E600005460078354CC00754D0E0690026C00024
:100E700008D4E06940F08050E061E069012600F0AC
:100E8000805000902E480168C90512D40168804640
:100E900041F480710160FFF7B3FE074605E000BF33
:100EA000FFF7AEFEC01B642823D8D8F80000C005A9
:100EB000F6D5206A10F4407021D0A98801F4407161
:100EC00081421CD0206A1F49012220F440700A6030
:100ED00000220A602062C00711D0FFF791FE07468A
:100EE00041F2883808E000BFFFF78AFEC11B414588
:100EF00002D90320BDE8F883206A8007F4D5206A70
:100F0000696820F44070084320621EB1E06920F057
:100F10008050E0612878800705D56068A96820F4D2
:100F20004040084360602878C00605D56068E968DD
:100F300020F48000084360600020DBE700100240DE
:100F400000700040400442422DE9F0470F46050082
:100F500061D0434E306800F00700B84209D23068D3
:100F600020F0070038433060306800F00700B842D6
:100F700051D128683B4C810712D5400703D56068E2
:100F800040F4E06060602878000703D5606840F4B2
:100F9000605060606068A96820F0F00008436060FD
:100FA0002878C00728D06868012810D02168022856
:100FB00010D0890700292EDA616821F0030101436E
:100FC0006160FFF71DFE804641F288390DE021681F
:100FD0008903EFE78901EDE7FFF712FEA0EB0801B7
:100FE000494502D90320BDE8F0876068696800F0D0
:100FF0000C00B0EB810FEFD1306800F00700B84271
:101000000BD9306820F0070038433060306800F0BA
:101010000700B84201D00120E5E72878400705D550
:101020006068E96820F4E0600843606028780007A1
:1010300006D56068296920F4605040EAC10060600C
:1010400000F048F86168084AC1F30311515CC840D8
:101050000649086006480068FFF7F2FD0020C2E775
:1010600000200240001002406C3F000824000020D5
:101070001C0000200F2202600C4A536803F0030397
:101080004360536803F0F0038360536803F4E06344
:10109000C36052684FF4E06303EAD202026104487D
:1010A000006800F007000860704700000010024070
:1010B000002002400448054900684968044AC1F319
:1010C000C221515CC840704724000020001002403B
:1010D0007C3F000812A185B00FC98DE80F0014A055
:1010E000144A006804905168134801F00C03042B63
:1010F00010D0082B0ED1C1F38343C9031DF80300A0
:101100000AD5516804AAC1F34041515C0A4A5043D0
:10111000B0FBF1F005B0704708494843FAE700001A
:1011200002030405060708090A0B0C0D0E0F101028
:10113000010200000010024000127A0000093D0088
:101140002DE9F84F040070D02078C04DC00749D079
:101150006868C0F38100012807D06868C0F3810087
:10116000022809D16868C00306D52868800339D5EC
:1011700060680028E7D035E06068B0F5803F0BD0AC
:1011800010B1B0F5A02F11D0286820F4803028606D
:10119000286820F4802002E0286840F4803028602D
:1011A000606890B1FFF72CFD06460AE0286840F41D
:1011B00080202860F0E700BFFFF722FD801B642835
:1011C00073D828688003F7D50CE0FFF719FD0646B1
:1011D00005E000BFFFF714FD801B6428F0D82868E5
:1011E0008003F7D420789A4E80074FF001094FF022
:1011F000000839D5686810F00C0F07D06868C0F394
:101200008100022809D16868C00306D428688007D5
:1012100014D52069012808D110E02069B0B1C6F8C2
:101220000090FFF7EDFC074605E00AE1FFF7E8FC58
:10123000C01B0228C4D828688007F7D528686169D0
:1012400020F0F80040EAC10028600DE0C6F80080F8
:10125000FFF7D6FC074604E0FFF7D2FCC01B0228CC
:1012600023D828688007F7D4207800072CD5794840
:10127000A169D9B1C0F80090FFF7C2FC074604E0AD
:10128000FFF7BEFCC01B02280FD8686A8007F7D59D
:1012900071484FF4FA510068B0FBF1F0009000BFC4
:1012A0000098411E0091FAD20EE080E0C0F8008064
:1012B000FFF7A6FC074604E0FFF7A2FCC01B0228CC
:1012C00075D8686A8007F7D42078400760D5E86948
:1012D0000027C00008D4E86940F08050E861E86960
:1012E000012700F0805000905C480168C90513D4C4
:1012F0000168834641F480710160FFF781FC8246FA
:1013000006E000BFFFF77CFCA0EB0A0064284ED883
:10131000DBF80000C005F5D5E06801280AD008B167
:10132000052813D0286A20F001002862286A20F0DE
:10133000040002E0286A40F001002862E06841F2FF
:10134000883B98B1FFF75CFC82460BE0286A40F0CE
:1013500004002862EEE700BFFFF752FCA0EB0A0191
:1013600059455AD8286A8007F6D50CE0FFF748FCA3
:10137000824605E0FFF744FCA0EB0A0159454CD832
:10138000286A8007F6D41FB1E86920F08050E86130
:10139000E06988B36968C1F38101022944D0022859
:1013A000C6F8608004D0FFF72BFC044638E034E038
:1013B000FFF726FC074604E0FFF722FCC01B0228CB
:1013C0002BD828688001F7D4206AB0F5803F05D17A
:1013D0006868A16820F4003008436860D4E9080117
:1013E0000843696821F4741108436860C6F8609086
:1013F000FFF706FC044606E025E000BFFFF700FC0F
:10140000001B022809D828688001F7D51BE000BF1F
:10141000FFF7F6FB001B022802D90320BDE8F88F76
:1014200028688001F4D40EE00128F7D06868226AA9
:1014300000F48031914204D1616A00F47010884256
:1014400001D00120EAE70020E8E700000010024098
:10145000000042428004424224000020007000400C
:101460007047704710B5040003D094F83D0010B1E8
:1014700007E0012010BD002084F83C00204600F069
:101480001EF8022084F83D00211D206800F072FA49
:10149000012084F8460084F83E0084F83F0084F878
:1014A000400084F8410084F8420084F8430084F846
:1014B000440084F8450084F83D00002010BD7047CA
:1014C00090F83D10012901D001207047022180F8D9
:1014D0003D100168CA6842F00102CA6000680B4909
:1014E000884208D0B0F1804F05D00949884202D027
:1014F0000849884204D1816801F00701062903D018
:10150000016841F00101016000207047002C01409A
:101510000004004000080040704770B504460068B1
:1015200001694FF00005C943890715D4C168C94353
:10153000890711D4E91E01610120207720688069A4
:101540008007204602D0FFF7E7FF04E000F098F89C
:10155000204600F096F8257720680169C9434907BD
:1015600017D4C168C943490713D46FF0040101615E
:10157000022020772068806910F4407F204602D046
:10158000FFF7CAFF04E000F07BF8204600F079F88E
:10159000257720680169C943090716D4C168C94382
:1015A000090712D46FF00801016104202077206838
:1015B000C0698007204602D0FFF7AEFF04E000F0CC
:1015C0005FF8204600F05DF8257720680169C9437F
:1015D000C90617D4C168C943C90613D46FF01001F6
:1015E0000161082020772068C06910F4407F204600
:1015F00002D0FFF791FF04E000F042F8204600F02F
:1016000040F8257720680169C943C90708D1C16836
:10161000C943C90704D1891E0161204600F032F890
:1016200020680169C943090609D4C168C94309068C
:1016300005D46FF0800101612046FFF711FF20689B
:101640000169C943490609D4C168C943490605D49B
:101650006FF040010161204600F01EF8206801692A
:10166000C94389060BD4C168C943890607D46FF002
:10167000200101612046BDE87040FFF7F2BE70BD59
:101680007047704700680349884201D1FFF7BEBA2E
:1016900070470000002C01407047FEE73EB5002473
:1016A00010480094019402940D4984600160047311
:1016B0000475012505614FF460214460C161FEF7A6
:1016C0009DFF08B172B6FEE7CDE9004569460548C1
:1016D0000294FEF711FF002801D072B6FEE73EBD6E
:1016E000002401409C00002070B586B000242548ED
:1016F0000094019402940394816941F01001816186
:10170000816901F010010491816941F0200181613A
:10171000816901F020010491816941F00401816136
:10172000816901F004010491816941F0080181613E
:101730008069154E00F0080004900022E021304638
:10174000FFF759FA4FF40040CDE9000469460F480D
:101750000294FFF75BF9E0200125CDE900050220A6
:10176000CDE9024069463046FFF750F92803009062
:101770000748CDE9010569460648FFF747F906B075
:1017800070BD000000100240000801400010014040
:1017900000001110000C0140FEE7FEE7DFF8248096
:1017A0000125094C4FF40047002639464046FFF713
:1017B0001DFA20B126700A2000F072F9F5E72570B5
:1017C000F9E700000010014000000020214D224CEC
:1017D000607870BB4FF0FF31606900F0BDF9207890
:1017E00058B361681D48814211DD0122202128463D
:1017F000FFF701FA002240212846FFF7FCF90022FA
:1018000080212846FFF7F7F9012060700EE00022E2
:1018100020212846FFF7EFF9012240212846FFF753
:10182000EAF9002280212846FFF7E5F9606900F017
:101830006BF90A2000F034F9CAE70022202128467B
:10184000FFF7D9F9002240212846FFF7D4F90122F9
:10185000E8E7000000080140000000200000964377
:101860001348FFF723F805211148FEF781FFC0B99F
:101870000F48FEF7BFFE02F04DF900220D4B02F0BB
:101880005DF900220C4B01F0EDFF0C4A0C4B02F00D
:1018900055F900220B4B01F03DFF01F009FF0A4909
:1018A00048600348FFF762F80A2000F0F9F8D7E72C
:1018B0009C00002000407F4000FEAF40BE9F1A2FDA
:1018C000DD2403400000E03F0000002010B5502060
:1018D00080F31188BFF34F8FBFF36F8F01F0F2FCDD
:1018E00018B104494FF080500860002080F311883F
:1018F00010BD000004ED00E030B593B0282168462B
:10190000FEF725FD14210AA8FEF721FD002502247B
:1019100001200F9504900094102005901295C003AB
:10192000CDE908501195109507946846FFF708FC1B
:1019300008B172B6FEE70AA90F2081E831000D95C3
:1019400000210AA80E95FFF7FFFA08B172B6FEE76C
:101950000FA811950F94FFF781FA002801D072B6F5
:10196000FEE713B030BD70470148FFF7D6BD000059
:1019700074070020F0B50268164B174C174D4FF056
:101980008047984205D0B84203D0A04201D0A84277
:1019900003D122F070064A683243984205D0B8421B
:1019A00003D0A04201D0A84203D122F44074CA68F7
:1019B00022434C6922F08002224302608A68C2629C
:1019C0000A688262984201D109690163012141617B
:1019D000F0BD0000002C0140000400400008004061
:1019E000FEE70907090E002804DB00F1E02080F87B
:1019F0000014704700F00F0000F1E02080F8141D83
:101A00007047EFF30580002800D0012070470000E8
:101A100098B0FFF703F9FFF76FFFFFF765FEFFF7D9
:101A20003DFE002205212820FFF782F92820FFF73C
:101A300071F9002015901690022115A800F03CF8CD
:101A4000124C1C22124960616846FEF74EFC0021D0
:101A5000684600F0B3F80E49A0601C221C3107A8AC
:101A6000FEF743FC002107A800F0A8F80849E06051
:101A70001C2238310EA8FEF738FC00210EA800F019
:101A80009DF8206100F013F8FEE700000000002040
:101A9000183F000801460020842900D0C81C704768
:101AA00010B500B9012000F003FE002010BD10B5F4
:101AB00000F0BAFE002010BD38B542687AB10129A5
:101AC00004D0BDE83840084600F099BF0320134613
:101AD000002200901146012000F0D5FF38BD0129F9
:101AE00004D0BDE83840084600F06CBF0322002156
:101AF000012000F0A4FF040004D000231A46194678
:101B000001F038F8204638BD38B500240546009469
:101B1000FFF777FF90B16946284601F039F90128AF
:101B200001D0FF2038BD009888B10A494FF080509D
:101B30000860BFF34F8FBFF36F8F08E000231A4692
:101B40001946284601F016F8012800D0FF24204647
:101B500038BD000004ED00E038B505004FF000008E
:101B600000900FD00024481C0ED001B10C46FFF7A6
:101B700048FFB8B16A460021284601F0F3F9012870
:101B800016D104E0802038BD4FF0FF34EFE7009815
:101B900080B109494FF080500860BFF34F8FBFF309
:101BA0006F8F07E02146284601F02AFA012801D06C
:101BB000FF2038BD002038BD04ED00E07FB50D46A4
:101BC00004464169B0F9080081B1A16971B1FFF71C
:101BD00061FFD4E905128DE80700D4E900102B4617
:101BE000226901F030FB039004B070BDFFF752FF93
:101BF00003A9CDE90001208A2B4682B2D4E9001066
:101C000001F0F4FA012801D00020EDE70398EBE79A
:101C10002DE9F041184C0F46054666692068001D05
:101C200000F016FC38B9206890F82C10012088408C
:101C3000A1698143A161681C07D137B12168BDE862
:101C4000F0410E48091D00F053BC20683544B542F0
:101C50004560216805D2A068BDE8F041091D00F08B
:101C60002FBC6068091D00F02BFC206B854200D260
:101C70002563BDE8F081000028000020D80800207E
:101C80002DE9F041054600F03FFC2E4C2069401C38
:101C9000206120682C4F10B1E06940B32DE0256031
:101CA0002069012829D1002606EB860007EB800079
:101CB00000F0F8FB761C072EF6D323488C3000F09A
:101CC000F1FB2148A03000F0EDFB1F48B43000F0DC
:101CD000E9FB1D48C83000F0E5FB1B48DC3000F094
:101CE000E1FB19488C3060601430A06005E020688A
:101CF000E96AC06A884200D82560E06A401CE06258
:101D0000E96A0120A26988401043A06101EB8100CB
:101D100007EB8000291D00F0EBFB00F015FCE069EB
:101D200000280CD02068E96AC06A884207D20749B7
:101D30004FF080500860BFF34F8FBFF36F8FBDE847
:101D4000F081000028000020FC07002004ED00E0E6
:101D500038B500F0D9FB104CA068C8B90F4800F0A6
:101D6000A1FB0E48143000F09DFB0C48206014309D
:101D700060600A4B00202833009003F148020C21D8
:101D80000A2000F080FEA06010B105A100F05AFC0E
:101D9000BDE8384000F0D8BB64000020EC0800200B
:101DA000546D72510000000030B4026C0B46002AE2
:101DB0000BD0C1681144C1604468A14201D30168DD
:101DC000C16030BC1846FEF74BBA30BC70472DE9F5
:101DD000F041856B174604460026026C82B1C7B1FC
:101DE000E068FEF73DFAE168206C091AE1602268BC
:101DF000914202D26168081AE060022F16D017E003
:101E00002068A8B9606801F0C1FA06460020606049
:101E10000EE0A068FEF724FA216CA0680844A060D8
:101E20006168884204D32068A06001E005B16D1E9E
:101E30006D1CA5633046BDE8F08110B5044690F8EE
:101E4000510058B101280CD002280FD0502080F347
:101E50001188BFF34F8FBFF36F8FFEE7206B00F049
:101E600087FB2046BDE8104000F082BB10BD00009B
:101E700010484FF44061420706D0C01D0D4920F0C4
:101E80000700411AC1F540610B4A00230144C2E931
:101E900000030839103A21F0070111604B600B6014
:101EA0000B1AC0E9001393604FF000405360D060FC
:101EB00070470000D409002088000020144E154C03
:101EC000A6F1C8074FF08058DFF84C9012E000BF31
:101ED00000F01AFBF068C568281D00F0B9FA206907
:101EE000401E2061E068401EE06000F02DFB2846A7
:101EF000FFF7A3FFE0680028EAD138680128F9D984
:101F0000C9F80080BFF34F8FBFF36F8FF2E7000077
:101F1000C40800202800002004ED00E003460098DB
:101F200029B10260C0E90F31012100F0DFBD00607E
:101F3000F8E72DE9F0479A46DDE9098481466FF01C
:101F40000303206B03EB82021044089D20F0070678
:101F5000700707D0502080F31188BFF34F8FBFF375
:101F60006F8FFEE723180A5C83F834200A5C12B1F5
:101F7000401C1028F6D3002784F84370072D00D3A7
:101F80000625E562C4E91157201D00F096FA04F118
:101F9000180000F092FA2461C5F107006462A061A4
:101FA000E76484F8507052464946304600F03EFAE5
:101FB0002060B8F1000F01D0C8F80040BDE8F087FC
:101FC00030B5114900E011460A688242FBD34B68E4
:101FD0005C18844203D1406818444860084643684E
:101FE0001C18944209D1084C103C2468A24209D024
:101FF00052681A4442600A6812680260814200D046
:10200000086030BD0460F9E78800002070B5002446
:1020100041600B4D0061914206D8D11A826991420C
:1020200006D2011D686807E09A4203D2994201D3A3
:10203000012403E0011D286800F042FA204670BD2B
:102040006400002010B5044600F05EFAA06B28B1D1
:102050005FF0000400F078FA204610BD0124F9E793
:1020600030B587B02C4D4EE0049800284BDB069C21
:10207000606910B1201D00F0EBF902A800F0B8F87B
:10208000024604980A283ED2DFE800F00505053D27
:10209000263705053D260598A169034601442046DB
:1020A000FFF7B4FF00B3616A20468847E069012862
:1020B00029D1002000900598A169002342181946F3
:1020C000204601F0C5FA78B9502080F31188BFF39B
:1020D0004F8FBFF36F8FFEE70598A06128B181187D
:1020E00013462046FFF792FF0DE0502080F3118841
:1020F000BFF34F8FBFF36F8FFEE794F8280010B93E
:10210000204600F035FA002204A9A86800F08EFEEF
:102110000028A9D107B030BD640000202DE9FC41A2
:102120000F46054600F0C4FB01A800F061F8044624
:10213000019818B101F0FAF9BDE8FC81224EAFB167
:1021400070680068A8B30027291B3A46B06800F001
:102150008DFA01F0EBF90028EED11C494FF08050C8
:102160000860BFF34F8FBFF36F8FE5E7A542EBD851
:1021700001F0DCF930682746C068C468201D00F013
:1021800067F9E069012810D1A0692B4641193A4648
:102190002046FFF73BFF40B1002003460146009078
:1021A0002A46204601F054FA20B1616A2046884749
:1021B000C2E707E0502080F31188BFF34F8FBFF3D1
:1021C0006F8FFEE70127BFE76400002004ED00E009
:1021D00006484168096829B14168C968C968496801
:1021E000016370474FF0FF31FAE70000280000203C
:1021F00070B5054601F060F8064E04463069844229
:1022000003D200F009F8012000E0002028602046F9
:10221000346170BD64000020F8B5194D1FE0C0683E
:10222000C4680668201D00F013F9616A20468847DB
:10223000E069012813D1A0693044B04206D9246175
:102240006060211D286800F03BF908E0002003468B
:10225000014600903246204601F0FAF938B128686C
:1022600001680029DBD16968C5E90010F8BD50207C
:1022700080F31188BFF34F8FBFF36F8FFEE700002D
:102280006400002008484068401C4FF0500080F374
:10229000118804D0BFF34F8FBFF36F8FFEE7BFF3FA
:1022A0004F8FBFF36F8FFEE790000020074C206830
:1022B000016841B1C0680021D0F80000FFF72EFF8F
:1022C000FFF7CEFEF3E701210020F7E764000020CE
:1022D0002DE9F041044600F017F994F9455004F156
:1022E000240609E0606A48B1304601F0E5F808B11B
:1022F00000F00CFA6D1E6DB2002DF3DC4FF0FF36CE
:1023000084F8456000F020F900F0FEF894F944509C
:1023100004F1100709E0206948B1384601F0CCF813
:1023200008B100F0F3F96D1E6DB2002DF3DC84F8F6
:102330004460BDE8F04100F007B900002DE9F0412C
:102340000546002700F0B4FA314E306808B9FFF7AF
:102350008FFDF06805424BD1C5B3083568070ED034
:1023600005F00700C0F108000544680707D05020B9
:1023700080F31188BFF34F8FBFF36F8FFEE72DB34C
:102380007068854234D82248103001460C6801E05C
:1023900020460C466168A94202D221680029F7D183
:1023A00031688C4224D00768216801606068083772
:1023B000411B10290FD96019420708D0502080F323
:1023C0001188BFF34F8FBFF36F8FFEE710E04160BE
:1023D0006560FFF7F5FD61687068401A7060B2686B
:1023E000904200D2B060F06801430020C4E90001CF
:1023F00001F09CF8780707D0502080F31188BFF3D4
:102400004F8FBFF36F8FFEE73846BDE8F0810000C5
:10241000780000200449086818B10868826C521CD2
:1024200082640868704700002800002010B5031F70
:102430004FF080741C601B1F21F001011960191FEF
:10244000024B0B60143940380A6010BD8522000829
:10245000D0E9013201699A60D0E901235A604A68E3
:10246000824201D182684A60002202610868401EEF
:102470000860086870470000034B036003F15400D4
:102480000860802010607047CC000020044B03607F
:1024900003F1540008604FF4807010607047000032
:1024A0002003002000F108014FF0FF32C0E90112C3
:1024B000C160016100210160704700210161704726
:1024C00030B50B685A1C02D000F1080202E0026924
:1024D00004E02246546825689D42FAD953684B604F
:1024E00099608A60516008610168491C016030BDD3
:1024F00042684A6093688B60936859609160086194
:102500000168491C01607047502080F31188BFF3B7
:102510004F8FBFF36F8F0A494868401C48600128FD
:102520000CD10848006810F0FF0F07D0502080F34E
:102530001188BFF34F8FBFF36F8FFEE77047000026
:102540009000002004ED00E00849486828B1401ED2
:10255000486001D180F311887047502080F31188C2
:10256000BFF34F8FBFF36F8FFEE700009000002096
:1025700070B5002827D0144DA0F108046168E86800
:10258000014207D1502080F31188BFF34F8FBFF372
:102590006F8FFEE722683AB1502080F31188BFF3B5
:1025A0004F8FBFF36F8FFEE78143616000F080F9CA
:1025B00060686968084468602046FFF701FDBDE86F
:1025C000704000F0B3BF70BD780000204FF0E020F5
:1025D00000210161816105494FF47A720968B1FBFC
:1025E000F2F1491E4161072101617047240000207A
:1025F00010B5FDF711FE114910280ED300F1E020AF
:1026000090F8F0030A78904207D2502080F31188A6
:10261000BFF34F8FBFF36F8FFEE7094800688968EB
:1026200000F4E060884207D9502080F31188BFF39E
:102630004F8FBFF36F8FFEE710BD000090000020AA
:102640000CED00E010B5084B002200BF53F83240FB
:102650001CB1521C082AF9D310BD43F8321003EB09
:10266000C201486010BD0000BC07002070B51546CF
:102670000E460446FFF748FF94F944100020491C19
:1026800001D184F8440094F94510491C01D184F823
:102690004500FFF759FFA06B28B92A46314604F1DF
:1026A000240000F051F82046BDE87040FFF710BE4E
:1026B00010B5020014D00F48806B38B1502080F361
:1026C0001188BFF34F8FBFF36F8FFEE700F0F0F874
:1026D00000211046FFF79CFA00F028FF002807D1E0
:1026E00005494FF080500860BFF34F8FBFF36F8FE5
:1026F00010BD00002800002004ED00E002498A6AB5
:1027000002604969416070472800002001490120AA
:10271000486270472800002010B50C4650B10949A6
:1027200009681831FFF7CCFE2046BDE810400121B2
:10273000FFF76EBA502080F31188BFF34F8FBFF3BD
:102740006F8FFEE72800002070B514460D4668B173
:102750000A4909681831FFF7CBFE0CB14FF0FF357D
:1027600021462846BDE87040FFF752BA502080F35A
:102770001188BFF34F8FBFF36F8FFEE72800002053
:1027800070B504004BD0A26CA2B1606C884200D33B
:102790000146E06A884242D0012A40D1204D2A6891
:1027A00094420FD1502080F31188BFF34F8FBFF3B5
:1027B0006F8FFEE7502080F31188BFF34F8FBFF378
:1027C0006F8FFEE7E162A269002A02DBC1F1070117
:1027D000A161144E00EB8000616906EB800081422C
:1027E0001DD1201DFFF734FE012150B9E06A00EB36
:1027F000800256F8222022B9AA6901FA00F0824329
:10280000AA61E06AAA6981401143A96100EB8000D6
:1028100006EB8000211DBDE87040FFF769BE70BD6A
:1028200028000020FC07002030B587B00024039466
:1028300005AA04A903A80494FFF71EFEDDE903011D
:102840000094CDE90110002315A11748059A00F066
:10285000FAFC164D002868631FD000F0C9FE01285D
:1028600009D0401C19D1502080F31188BFF34F8F3D
:10287000BFF36F8FFEE7502080F31188BFF34F8FB7
:10288000BFF36F8F4FF0FF3028630120E8616C6168
:1028900007B0BDE8304000F041B807B030BD0000DF
:1028A00049444C4500000000BD1E000828000020DF
:1028B0000248816B491C816370470000280000209A
:1028C0001448816B11B101214162704700214162BE
:1028D0008169B1FA81F1C1F11F0101EB81020E4959
:1028E00051F822306BB101EB820101F108034A6813
:1028F00052684A609A4201D152684A60D1680160C8
:102900007047502080F31188BFF34F8FBFF36F8F54
:10291000FEE7000028000020FC0700201CB5264927
:1029200008780190FF20087008788DF800009DF865
:1029300000009DF8002000F0F000904207D05020E9
:1029400080F31188BFF34F8FBFF36F8FFEE79DF8C1
:1029500000001A4B00F0500018700720986005E046
:102960009DF8002052008DF80020401E9DF80020A8
:102970001206F5D49860032807D0502080F3118800
:10298000BFF34F8FBFF36F8FFEE74FF44070986037
:10299000019808700A48016841F4700101600168FB
:1029A00041F070410160FFF711FE00205860FDF713
:1029B000FDFB00201CBD000000E400E090000020B2
:1029C00020ED00E010B50C4648B184420FD95020EC
:1029D00080F31188BFF34F8FBFF36F8FFEE7502056
:1029E00080F31188BFF34F8FBFF36F8FFEE7022292
:1029F000002100F024F8002800D0846310BD38B511
:102A00000C4648B184420FD9502080F31188BFF39F
:102A10004F8FBFF36F8FFEE7502080F31188BFF315
:102A20004F8FBFF36F8FFEE7022113460022009104
:102A3000114600F028F8002800D0846338BDF8B5AE
:102A400017460E46050014D0DEB105FB06F04830EF
:102A5000FFF774FC04000AD0002084F8460004F15B
:102A600048023B46314628460094FFF757FA204675
:102A7000F8BD502080F31188BFF34F8FBFF36F8FE5
:102A8000FEE70020E3E738B5049D18B153B1CAB1A1
:102A900081B120E0502080F31188BFF34F8FBFF346
:102AA0006F8FFEE7502080F31188BFF34F8FBFF385
:102AB0006F8FFEE7502080F31188BFF34F8FBFF375
:102AC0006F8FFEE739B1502080F31188BFF34F8F2D
:102AD000BFF36F8FFEE748241C46012384F846307D
:102AE0002B460094FFF71AFA204638BD70B50D4604
:102AF000040025D0FFF708FDD4E90F20216802FB70
:102B0000001161600021A1632168A1600A46D4E937
:102B10000F01401E00FB0121E16021464FF0FF3014
:102B200001F8440F487004F110008DB1FFF7BAFCB2
:102B300004F12400FFF7B6FCFFF706FD012070BD8D
:102B4000502080F31188BFF34F8FBFF36F8FFEE7E4
:102B500021690029F0D000F0AFFC0028ECD0044936
:102B60004FF080500860BFF34F8FBFF36F8FE3E7E4
:102B700004ED00E02DE9FF4782B01D468A464FF084
:102B80000008040003D0BAF1000F08D011E0502073
:102B900080F31188BFF34F8FBFF36F8FFEE7206C78
:102BA00038B1502080F31188BFF34F8FBFF36F8F80
:102BB000FEE7022D0AD1E06B012807D0502080F3F8
:102BC0001188BFF34F8FBFF36F8FFEE700F066FBF6
:102BD0003F4F4FF000094FF0805648B9049838B184
:102BE000502080F31188BFF34F8FBFF36F8FFEE744
:102BF000FFF78AFCA06BE16B884207D3022D05D05A
:102C00000498D0B1B8F1000F1AD01EE02A46514600
:102C10002046FFF7DCF8616A19B104F1240000F0E6
:102C20004BFC20B13E60BFF34F8FBFF36F8FFFF7B8
:102C30008BFC012006B0BDE8F087FFF785FC22E0A1
:102C40006846FFF75BFD4FF00108FFF77DFCFFF7DB
:102C50002FFEFFF759FC94F94400401C01D184F881
:102C6000449094F94500401C01D184F84590FFF749
:102C70006BFC04A9684600F07FFA30B12046FFF7EC
:102C800027FB00F053FC0020D4E7FFF73DFCA06BCE
:102C9000E16B884213D1FFF757FC04F1100004994F
:102CA000FFF73AFD2046FFF713FB00F03FFC00283A
:102CB0009ED13E60BFF34F8FBFF36F8F98E7FFF752
:102CC00043FC2046FFF704FB00F030FC90E70000D7
:102CD00004ED00E02DE9F0471F46904689460400C8
:102CE00003D0B9F1000F08D011E0502080F3118813
:102CF000BFF34F8FBFF36F8FFEE7206C38B15020CA
:102D000080F31188BFF34F8FBFF36F8FFEE7022F61
:102D10000AD1E06B012807D0502080F31188BFF35F
:102D20004F8FBFF36F8FFEE7FFF762FC5020EFF38A
:102D3000118680F31188BFF34F8FBFF36F8FA06BA5
:102D4000E16B884206D3022F04D0002086F311885D
:102D5000BDE8F08794F945503A4649462046FFF7CA
:102D600036F8681C04D06D1C84F845500120EDE74E
:102D7000606A0028FAD004F1240000F09DFB0028CE
:102D8000F4D0B8F1000FF1D00121C8F80010EDE740
:102D900070B50E46040009D0206C78B1502080F345
:102DA0001188BFF34F8FBFF36F8FFEE7502080F382
:102DB0001188BFF34F8FBFF36F8FFEE7206848B9CC
:102DC000606838B1502080F31188BFF34F8FBFF394
:102DD0006F8FFEE7FFF70CFC5020EFF3118580F3B7
:102DE0001188BFF34F8FBFF36F8FA16BE06B8842E9
:102DF00018D994F94500491CA163411C04D0401C1A
:102E000084F8450001200EE0606A0028FAD004F141
:102E1000240000F051FB0028F4D0002EF2D0012055
:102E20003060EFE7002085F3118870BD2DE9F7478A
:102E3000002683B08A46040003D0BAF1000F08D000
:102E400011E0502080F31188BFF34F8FBFF36F8FD5
:102E5000FEE7206C38B1502080F31188BFF34F8F0C
:102E6000BFF36F8FFEE700F019FADFF8F4804FF040
:102E700000094FF0805748B9059838B1502080F3C9
:102E80001188BFF34F8FBFF36F8FFEE7FFF73CFB57
:102E9000A56BC5B151462046FEF786FF6D1EA563A2
:102EA000206950B104F1100000F006FB28B1C8F809
:102EB0000070BFF34F8FBFF36F8FFFF745FB01200B
:102EC00006B0BDE8F087059808B11EB106E0FFF72F
:102ED0003BFB27E06846FFF711FC0126FFF734FBB8
:102EE000FFF7E6FCFFF710FB94F94400401C01D10A
:102EF00084F8449094F94500401C01D184F8459031
:102F0000FFF722FB05A9684600F036F900282046A5
:102F10000AD0FFF7DDF900F009FB2046FFF792F831
:102F20000028B3D00020CBE7FFF78CF890B104F174
:102F300024000599FFF7F0FB2046FFF7C9F900F0E0
:102F4000F5FA0028A2D1C8F80070BFF34F8FBFF385
:102F50006F8F9BE72046FFF7BBF900F0E7FA95E794
:102F600004ED00E02DE9F04790468946040003D0C7
:102F7000B9F1000F08D011E0502080F31188BFF3A1
:102F80004F8FBFF36F8FFEE7206C38B1502080F376
:102F90001188BFF34F8FBFF36F8FFEE7FFF728FB5A
:102FA0005020EFF3118680F31188BFF34F8FBFF3EA
:102FB0006F8FA76BF7B194F9445049462046FEF74E
:102FC000F3FE7F1EA763681C04D06D1C84F8445078
:102FD000012010E020690028FAD004F1100000F070
:102FE0006BFA0028F4D0B8F1000FF1D00121C8F835
:102FF0000010EDE7002086F31188BDE8F08700009F
:103000002DE9F343002683B00400354609D0206C37
:1030100078B1502080F31188BFF34F8FBFF36F8FCB
:10302000FEE7502080F31188BFF34F8FBFF36F8FFF
:10303000FEE700F033F9DFF83C814FF000094FF074
:10304000805748B9049838B1502080F31188BFF3F5
:103050004F8FBFF36F8FFEE7FFF756FAA06BC8B133
:10306000401EA063206810B9FFF7D4F960602069A2
:1030700050B104F1100000F01FFA28B1C8F8007038
:10308000BFF34F8FBFF36F8FFFF75EFA012005B0DC
:10309000BDE8F083049808B166B10FE03DB150205F
:1030A00080F31188BFF34F8FBFF36F8FFEE7FFF7F9
:1030B0004BFA5DE06846FFF721FB0126FFF744FA73
:1030C000FFF7F6FBFFF720FA94F94400401C01D10A
:1030D00084F8449094F94500401C01D184F845904F
:1030E000FFF732FA04A9684600F046F800282046A7
:1030F00012D0FFF7EDF800F019FA2046FEF7A2FF14
:103100000028A9D09DB3FFF7FFF9606A50B3206B88
:103110000068C0F1070126E0FEF794FFE0B12068E7
:1031200038B9FFF7F1F9606800F07CF90546FFF760
:103130000BFA04F124000499FFF7EEFA2046FFF79A
:10314000C7F800F0F3F9002886D1C8F80070BFF383
:103150004F8FBFF36F8F7FE72046FFF7B9F800F07E
:10316000E5F979E700216068FFF70AFB9FE7FFE7D1
:1031700000208CE704ED00E02DE9F0410C4605004D
:1031800011D0C4B1FFF7C0F9174B5A696E682068B7
:10319000911B471C17D02F689B6A9F4219D09642FB
:1031A00017D8012410E0502080F31188BFF34F8F0F
:1031B000BFF36F8FFEE7502080F31188BFF34F8F6E
:1031C000BFF36F8FFEE70024FFF7BEF92046BDE88E
:1031D000F081884205D9401A20602846FFF78EFA10
:1031E000F1E700202060DCE7280000202DE9FF5FE8
:1031F0008346DDE90E87994616468A469000FFF71A
:103200009DF805001CD05420FFF798F8040014D056
:103210000020256384F85100CDE90240CDE9008704
:103220004B46324651465846FEF783FE2046FEF78F
:1032300027FD012004B0BDE8F09F2846FFF798F96C
:103240004FF0FF30F6E7F0B585B0DDE90B640A9D7D
:10325000A6B1DCB1542700972663022684F851609A
:10326000002604AFCDE90246CDE90057FEF761FE26
:103270002046FEF705FD049805B0F0BD502080F310
:103280001188BFF34F8FBFF36F8FFEE7502080F39D
:103290001188BFF34F8FBFF36F8FFEE70548C169F9
:1032A00019B1806B18B100207047012070470220CF
:1032B0007047000028000020014840697047000066
:1032C000280000202DE9F0412E4C0027A06B40B1D2
:1032D000206A401C2062606A00B101273846BDE8C0
:1032E000F0816669761C666113D16068006838B148
:1032F000502080F31188BFF34F8FBFF36F8FFEE72D
:103300006068A1686160A060A06A401CA062FEF7CE
:103310005FFF206BDFF87080864209D36068006829
:1033200080B16068C068C568686886420DD2206355
:103330002068C06A00EB800158F821000128CAD932
:103340000127C8E74FF0FF30F1E7281DFFF780F8AD
:10335000A86A18B105F11800FFF77AF8E86A0121A8
:10336000A26981401143A16100EB800108EB81005B
:10337000291DFFF7BDF8E86A2168C96A8842CDD3E4
:103380000127CBE728000020FC07002070B50400CF
:103390004FF0000140D0214D2868844207D05020D2
:1033A00080F31188BFF34F8FBFF36F8FFEE7A06CE0
:1033B00038B1401EA064636CE26A9A422CD040B1DE
:1033C0002AE0502080F31188BFF34F8FBFF36F8F37
:1033D000FEE7201DFFF73CF8114A012150B9E06AD1
:1033E00000EB800352F8233023B9AB6901FA00F0F7
:1033F0008343AB61606CE062C0F10700A061E06AEA
:10340000AB6981401943A96100EB800002EB8000A9
:10341000211DFFF76DF80121084670BD280000202E
:10342000FC07002070B504004FF0000038D0204D9C
:10343000E16A2A68D26A914233D2A069002804DB8B
:103440002868C06AC0F10700A0611A4E01EB810133
:10345000606906EB810188421ED1201DFEF7F8FF4E
:10346000012150B9E06A00EB800256F8222022B90F
:10347000AA6901FA00F08243AA612868C06AE06282
:10348000AA6981401143A96100EB800006EB80002E
:10349000211DFFF72DF802E02868C06AE0620120D4
:1034A00070BD616C2A68D26A9142F8D370BD000089
:1034B00028000020FC0700202DE9F041C068C46806
:1034C000ACB104F118000746FEF7C2FF154DA86B1A
:1034D0000126A0B139461448FFF70AF8E06A2968C6
:1034E000C96A88421CD901206E62BDE8F081502073
:1034F00080F31188BFF34F8FBFF36F8FFEE7201D5E
:10350000FEF7A6FFE16AAA6906FA01F01043A86176
:1035100001EB81000449B43901EB8000211DDBE798
:103520000020E2E728000020B00800202DE9F04745
:103530002C4D00242746A86B38B1FEF7E5FFA86B99
:10354000401EA863A86B40B146E0502080F311886C
:10355000BFF34F8FBFF36F8FFEE72969224E012023
:10356000D1B3A6F1B40980463068E8B1F068C46808
:1035700004F11800FEF76CFF201DFEF769FFE06AFA
:10358000AA6908FA00F11143A96100EB800109EB77
:103590008100211DFEF7ACFFE06A2968C96A8842F4
:1035A000E2D3C5F82480DFE70CB1FEF711FE2C6AE8
:1035B00044B14646FFF786FE00B16E62641EF9D143
:1035C00000202862686A38B1084901273807086076
:1035D000BFF34F8FBFF36F8FFEF7B6FF3846BDE8DE
:1035E000F087000028000020B008002004ED00E073
:1035F00010B586B0FEF7ACFB114CA068B8B1002046
:103600000390049005AA04A903A8FEF73FFFDDE993
:10361000032102208DE8070000230AA10B48059A28
:10362000FFF711FEE06010B106B0012010BD502080
:1036300080F31188BFF34F8FBFF36F8FFEE7000059
:1036400064000020546D722053766300AD220008A0
:10365000FEB51E4613460200089D4FF0000014D030
:10366000124CA768002F0FD0CDE900130292062953
:1036700015DAFFF713FE02284FF000030DD00022E9
:103680006946A068FFF776FAFEBD502080F31188E6
:10369000BFF34F8FBFF36F8FFEE72A46F0E700239B
:1036A000324669463846FFF715FBFEBD6400002030
:1036B00021F00042A2F16052B2F5801F01F00043F8
:1036C00028BFD2F17F6C0BD95FEA001C43EAC2022B
:1036D00042EB507018BF704728BF20F001007047C0
:1036E000B2F5801FBCBF184670474FEA410C1CF56D
:1036F000001F02D2084600F009BC70B500F0C8FAFD
:1037000000000089FFF7F6BF4FF00040A0F58000F1
:103710007047000010B591EA030F48BF83F00043E3
:1037200000F11283841A71EB030C05D2121943EBDA
:103730000C03001B61EB0C01DFF824E14FEA11548C
:10374000A4EB135C1EEA430F18BF9EEA445F73D0DC
:1037500023EA0E03DCF1200E21EA045143F4801326
:1037600032D322FA0CFE10EB0E0023FA0CFE41EBD2
:103770000E01CCF1200E03FA0EFE10EB0E0051F1FB
:103780000001B1F5801FCCF1200E32D201EB0451C3
:1037900012FA0EF2BDE8104058BF7047401C38BF07
:1037A0005FEA420218BF7047002814BF20F00100F2
:1037B00041F100014FEA410313F5001F38BF704784
:1037C000A1F1C04100F0B2BA012A43EB0302ACF10F
:1037D000200CDCF11F0E32BF4FF0000E23FA0CF369
:1037E00010EB030041EB0451B4EB115FD0D0A1EB1F
:1037F000045101F5801149085FEA300001EB0451E2
:103800000ED350F1000038BF12FA0EFE08D1BDE809
:103810001040C9E7401C38BF5FEA4202CAD1C3E783
:10382000BDE810404FEA410313F5001F38BF704751
:10383000A1F1C04100F07ABA9EEA445F08D011EAD3
:103840005E0FBDE8104004BF01F00041002070474A
:10385000BDE8104070B500F01BFA00BF64FBBE3E2F
:103860000000E0FF2DE9C04130B4DFF8A0C23CEA1F
:10387000111418BF3CEA131400F0EC8081EA030530
:103880001CEA111444EAD57418BF1CEA131500F0A1
:10389000C780A4EB05044FF0004545EAC12145EA85
:1038A000C32341EA505143EA525304F17F749942D1
:1038B00004F500344FEAC0204FEAC22208BF90420C
:1038C00000F09C804FEA13650FF24016765D4FEAD8
:1038D000134506FB05F7C7F1807706FB07F74FEAAC
:1038E000D737A7FB03687642C8F58038A7FB06CE1A
:1038F00038BFA8F1010807FB08E64FF0000EA6FB51
:10390000028CE6FB03CEDCF1000CCEF1004E38BF9A
:10391000AEF1010EA6FB0C584FF000074FF000056A
:10392000E6FB0E87A1FB08C6A0FB07CE16EB0E0632
:1039300045F10005E1FB076515F1E04E7EBFA4F5FA
:1039400080345FEA46066D4116F1800745F10005B7
:103950004FEA17274FEA066647EA0567A6F1DE46F3
:10396000B6F1805F4FEA15251FD9384624F0010CC7
:1039700005EBC471BCF1FE6F01EB0C1102D8F0BC79
:10398000BDE8008124425CBF01F5801E9EEAC47F31
:1039900002D4F0BCBDE80081244238D4F0BCA1F1CF
:1039A000C041BDE8004100F0C1B94FEAD22242EA6D
:1039B00043524FEAD323A7FB02864FEAD02040EAC6
:1039C000415007FB03661EEA0E0F4FEAD12105FBAB
:1039D000026658BFA6EB0056B6EB00564FEA520EF1
:1039E0004EEAC37E18EB0E0E56EB530EBDD518EB08
:1039F00002085E417F1C55F10005B6E74FF48015C3
:103A00004FF000074FF000064FF00008ADE7F0BCA4
:103A10004FF0000001F1C04101F00041BDE800811C
:103A200011EA0C1F0CEA131500D00CE013EA0C1F6E
:103A300000F025804FF00000F0BC81EA030101F0A6
:103A40000041BDE80081F0BCBDE8004181EA03010E
:103A500000F06CB9F0BCBDE8004170B500F018F999
:103A6000097EFC3E00F007B881EA03014FF0000038
:103A700001F00041704781EA030100F057B9F0BC42
:103A8000BDE800414FF0000021497047FFFDFBF900
:103A9000F7F5F4F2F0EEEDEBE9E8E6E4E3E1E0DE81
:103AA000DDDBDAD8D7D5D4D3D1D0CFCDCCCBCAC8F3
:103AB000C7C6C5C4C2C1C0BFBEBDBCBBBAB9B8B71A
:103AC000B6B5B4B3B2B1B0AFAEADACABAAA9A8A80D
:103AD000A7A6A5A4A3A3A2A1A09F9F9E9D9C9C9BDB
:103AE0009A99999897979695959493939291919086
:103AF0008F8F8E8E8D8C8C8B8B8A89898888878717
:103B00008685858484838382828181800000FF078B
:103B10000000F87FB0FA80F310FA03F10AD0C3F185
:103B20001D0303F580634FEA41504FEA035202EB55
:103B3000D12170474FF0000070470000DFF848C106
:103B400070B51CEA111E1EBF1CEA13159EEA0C0F6D
:103B500095EA0C0F00F06F8081EA030423EA4C130E
:103B60004EEAD47E21EA4C1141F4801143F48013D3
:103B7000AE44A1FB024CA0FB0365AEF17F7E36197B
:103B800055EB0C05A1FB034C4CF10003A0FB021C00
:103B900016EB0C06654153F10003094218BF46F0CD
:103BA000010613F4007F0BD14FEA03314FEA0530D1
:103BB000340341EA155140EA16506FF003020AE05F
:103BC0004FEAC3214FEAC520F40241EA555140EAC9
:103BD00056506FF0020202EB2E4201EB025585EACD
:103BE000CE710AD05FEA440C18BF24F0004450F1B3
:103BF000000041F1000120EAD47040F2FE7C6245F1
:103C000000D270BDA84214BF4FF080444FF0404432
:103C1000002E08BF0024BEF1806FA8BFA1F1C041F3
:103C2000BDE8704080F282804FF0000001F1C04199
:103C300001F0004170479EEA0C0F0CEA131518BF03
:103C400095EA0C0F06D04FF0000081EA030E0EF04B
:103C5000004170BD00F01CF88900013E00F007B87B
:103C600000F009B84FEA430C5FEA5C5C08D081EAD7
:103C7000030100F05BB84FEA410C5FEA5C5CF6D1EF
:103C80004FF00000014970470000FF070000F87F77
:103C90000EF1020E2EF0030E5EF8046B364205D4D0
:103CA000012A43EB030515F5001F12D8012841EB4B
:103CB000010C1CF5001F0CD80ED14FEAD17C15F574
:103CC000001F0CEB4C0C0CF1020C08BF4CEBD37C2E
:103CD00004E04FF0080C01E04FEAD37C0CEB4C05FC
:103CE00026FA05F606F00706B6F1040C06D20EEB2E
:103CF000860CBDE870404CF0010C6047DFE80CF02A
:103D0000090B02024FF000414FF00000A1F5002125
:103D100070BD19461046012851EB010418BFD4F5B7
:103D2000001484BF002001F0004170BD0808A0F518
:103D300000114FEA3101704710B591EA030F48BFF7
:103D400083F000433FF5EEAC841A71EB030C07D20D
:103D500012198CF0004C43EB0C03001B61EB0C01BF
:103D6000DFF8A4E14FEA1154A4EB135C1EEA430F01
:103D700018BF9EEA445F00F0B08023EA6E0352420F
:103D800021EA0451C3EB6E0338BF5B1EDCF1200E49
:103D900025D322FA0CFE10EB0E0043FA0CFE41EB89
:103DA0000E01CCF1200E03FA0EFE10EB0E0051F1C5
:103DB0000001CCF1200E29D412FA0EF201EB0451CD
:103DC000BDE8104058BF7047401C1CBFB2F1004F07
:103DD000704700280CBF491C20F00100704712EB0F
:103DE000020E43EB030218BF4FF0010E4EEA4202EF
:103DF000ACF1200CDCF11E0E54D943FA0CFE10EB92
:103E00000E0051F1FF31CCF11E0ED5D50EF1010E91
:103E100012FA0EFE404141EB010101EB445C5FEA06
:103E20005C5C10D910EBDE7001EB045138BFBEF1C1
:103E3000004FBDE8104018BF704700280CBF491C58
:103E400020F00100704730D24FEAD42C11F5001158
:103E500024F400641BD0B1FA81F20B3AA41AA41E18
:103E6000D2F12003914030FA03F31943904001EB63
:103E7000CC71002C01EB0451BDE81040A8BF704785
:103E800001F1C0414FF0000001F000417047B0FA6D
:103E900080F310FA03F100D110BDE41A173C480575
:103EA000C90AE4E701EB045110BD491001EB0451CC
:103EB000BDE810404FEA300002E04FF000017047CB
:103EC0004A0008BF0042F8D0B2F5001F28BF704773
:103ED00001F000414FF0000070479EEA445F07D0B8
:103EE00011EA5E0FBDE8104004BF002100207047BA
:103EF000BDE8104070B5FFF7CBFE00BF40DFF63ED7
:103F000083F00041104670470000E0FFFF2141EAC6
:103F1000D050C00570470000943F00089D1700086E
:103F20000000000000000000800000000000000011
:103F300000000000843F0008611800080000000035
:103F400000000000800000000000000000000000F1
:103F5000A03F0008CD17000801000000000000008D
:103F600080000000000000000000000000000000D1
:103F70000000000001020304060708090000000019
:103F800001020304636865636B54656D706572615B
:103F900074757200636865636B47617300000000AD
:103FA00072756E416374696F6E730000CC3F0008D8
:103FB000000000209C000000280100086840000864
:103FC0009C0000209C1B0000440100080000000031
:103FD00000000000000000000000000000000000E1
:103FE00000000000010000001000000000000000C0
:103FF0000024F400000000000000000000000000A9
:1040000000000000000000000000000000000000B0
:1040100000000000000000000000000000000000A0
:104020000000000000000000000000000000000090
:104030000000000000000000000000000000000080
:104040000000000000000000000000000000000070
:104050000000000000000000000000000000000060
:08406000AAAAAAAA00000000B0
:04000005080000ED02
:00000001FF
